{
  "contractName": "Decentragram",
  "abi": [
    {
      "anonymous": false,
      "inputs": [
        {
          "indexed": false,
          "internalType": "uint256",
          "name": "id",
          "type": "uint256"
        },
        {
          "indexed": false,
          "internalType": "string",
          "name": "hash",
          "type": "string"
        },
        {
          "indexed": false,
          "internalType": "string",
          "name": "description",
          "type": "string"
        },
        {
          "indexed": false,
          "internalType": "uint256",
          "name": "tipAmount",
          "type": "uint256"
        },
        {
          "indexed": false,
          "internalType": "address payable",
          "name": "author",
          "type": "address"
        }
      ],
      "name": "ImageCreated",
      "type": "event"
    },
    {
      "anonymous": false,
      "inputs": [
        {
          "indexed": false,
          "internalType": "uint256",
          "name": "id",
          "type": "uint256"
        },
        {
          "indexed": false,
          "internalType": "string",
          "name": "hash",
          "type": "string"
        },
        {
          "indexed": false,
          "internalType": "string",
          "name": "description",
          "type": "string"
        },
        {
          "indexed": false,
          "internalType": "uint256",
          "name": "tipAmount",
          "type": "uint256"
        },
        {
          "indexed": false,
          "internalType": "address payable",
          "name": "author",
          "type": "address"
        }
      ],
      "name": "TippedImage",
      "type": "event"
    },
    {
      "constant": true,
      "inputs": [],
      "name": "imageCount",
      "outputs": [
        {
          "internalType": "uint256",
          "name": "",
          "type": "uint256"
        }
      ],
      "payable": false,
      "stateMutability": "view",
      "type": "function"
    },
    {
      "constant": true,
      "inputs": [
        {
          "internalType": "uint256",
          "name": "",
          "type": "uint256"
        }
      ],
      "name": "images",
      "outputs": [
        {
          "internalType": "uint256",
          "name": "id",
          "type": "uint256"
        },
        {
          "internalType": "string",
          "name": "hash",
          "type": "string"
        },
        {
          "internalType": "string",
          "name": "description",
          "type": "string"
        },
        {
          "internalType": "uint256",
          "name": "tipAmount",
          "type": "uint256"
        },
        {
          "internalType": "address payable",
          "name": "author",
          "type": "address"
        }
      ],
      "payable": false,
      "stateMutability": "view",
      "type": "function"
    },
    {
      "constant": true,
      "inputs": [],
      "name": "name",
      "outputs": [
        {
          "internalType": "string",
          "name": "",
          "type": "string"
        }
      ],
      "payable": false,
      "stateMutability": "view",
      "type": "function"
    },
    {
      "constant": false,
      "inputs": [
        {
          "internalType": "string",
          "name": "_imgHash",
          "type": "string"
        },
        {
          "internalType": "string",
          "name": "_description",
          "type": "string"
        }
      ],
      "name": "uploadImage",
      "outputs": [],
      "payable": false,
      "stateMutability": "nonpayable",
      "type": "function"
    },
    {
      "constant": false,
      "inputs": [
        {
          "internalType": "uint256",
          "name": "_id",
          "type": "uint256"
        }
      ],
      "name": "tipImageOwner",
      "outputs": [],
      "payable": true,
      "stateMutability": "payable",
      "type": "function"
    }
  ],
  "bytecode": "0x60806040526040518060400160405280600c81526020017f446563656e7472616772616d00000000000000000000000000000000000000008152506000908051906020019061004f929190610067565b50600060015534801561006157600080fd5b5061010c565b828054600181600116156101000203166002900490600052602060002090601f016020900481019282601f106100a857805160ff19168380011785556100d6565b828001600101855582156100d6579182015b828111156100d55782518255916020019190600101906100ba565b5b5090506100e391906100e7565b5090565b61010991905b808211156101055760008160009055506001016100ed565b5090565b90565b610f178061011b6000396000f3fe60806040526004361061004a5760003560e01c806306fdde031461004f57806384856482146100df5780638567ade81461024057806392053b631461026e578063a91b831414610299575b600080fd5b34801561005b57600080fd5b506100646103f8565b6040518080602001828103825283818151815260200191508051906020019080838360005b838110156100a4578082015181840152602081019050610089565b50505050905090810190601f1680156100d15780820380516001836020036101000a031916815260200191505b509250505060405180910390f35b3480156100eb57600080fd5b506101186004803603602081101561010257600080fd5b8101908080359060200190929190505050610496565b6040518086815260200180602001806020018581526020018473ffffffffffffffffffffffffffffffffffffffff1673ffffffffffffffffffffffffffffffffffffffff168152602001838103835287818151815260200191508051906020019080838360005b8381101561019a57808201518184015260208101905061017f565b50505050905090810190601f1680156101c75780820380516001836020036101000a031916815260200191505b50838103825286818151815260200191508051906020019080838360005b838110156102005780820151818401526020810190506101e5565b50505050905090810190601f16801561022d5780820380516001836020036101000a031916815260200191505b5097505050505050505060405180910390f35b61026c6004803603602081101561025657600080fd5b810190808035906020019092919050505061061c565b005b34801561027a57600080fd5b50610283610a77565b6040518082815260200191505060405180910390f35b3480156102a557600080fd5b506103f6600480360360408110156102bc57600080fd5b81019080803590602001906401000000008111156102d957600080fd5b8201836020820111156102eb57600080fd5b8035906020019184600183028401116401000000008311171561030d57600080fd5b91908080601f016020809104026020016040519081016040528093929190818152602001838380828437600081840152601f19601f8201169050808301925050505050505091929192908035906020019064010000000081111561037057600080fd5b82018360208201111561038257600080fd5b803590602001918460018302840111640100000000831117156103a457600080fd5b91908080601f016020809104026020016040519081016040528093929190818152602001838380828437600081840152601f19601f820116905080830192505050505050509192919290505050610a7d565b005b60008054600181600116156101000203166002900480601f01602080910402602001604051908101604052809291908181526020018280546001816001161561010002031660029004801561048e5780601f106104635761010080835404028352916020019161048e565b820191906000526020600020905b81548152906001019060200180831161047157829003601f168201915b505050505081565b6002602052806000526040600020600091509050806000015490806001018054600181600116156101000203166002900480601f0160208091040260200160405190810160405280929190818152602001828054600181600116156101000203166002900480156105485780601f1061051d57610100808354040283529160200191610548565b820191906000526020600020905b81548152906001019060200180831161052b57829003601f168201915b505050505090806002018054600181600116156101000203166002900480601f0160208091040260200160405190810160405280929190818152602001828054600181600116156101000203166002900480156105e65780601f106105bb576101008083540402835291602001916105e6565b820191906000526020600020905b8154815290600101906020018083116105c957829003601f168201915b5050505050908060030154908060040160009054906101000a900473ffffffffffffffffffffffffffffffffffffffff16905085565b60008111801561062e57506001548111155b61063757600080fd5b61063f610df8565b600260008381526020019081526020016000206040518060a001604052908160008201548152602001600182018054600181600116156101000203166002900480601f0160208091040260200160405190810160405280929190818152602001828054600181600116156101000203166002900480156107005780601f106106d557610100808354040283529160200191610700565b820191906000526020600020905b8154815290600101906020018083116106e357829003601f168201915b50505050508152602001600282018054600181600116156101000203166002900480601f0160208091040260200160405190810160405280929190818152602001828054600181600116156101000203166002900480156107a25780601f10610777576101008083540402835291602001916107a2565b820191906000526020600020905b81548152906001019060200180831161078557829003601f168201915b50505050508152602001600382015481526020016004820160009054906101000a900473ffffffffffffffffffffffffffffffffffffffff1673ffffffffffffffffffffffffffffffffffffffff1673ffffffffffffffffffffffffffffffffffffffff168152505090506000816080015190508073ffffffffffffffffffffffffffffffffffffffff166108fc349081150290604051600060405180830381858888f1935050505015801561085c573d6000803e3d6000fd5b503482606001510182606001818152505081600260008581526020019081526020016000206000820151816000015560208201518160010190805190602001906108a7929190610e3d565b5060408201518160020190805190602001906108c4929190610e3d565b506060820151816003015560808201518160040160006101000a81548173ffffffffffffffffffffffffffffffffffffffff021916908373ffffffffffffffffffffffffffffffffffffffff1602179055509050507f31f37b6546de24159baa4aca051f3c58876fb8151aad0de01fb8c05de1b0a2b583836020015184604001518560600151856040518086815260200180602001806020018581526020018473ffffffffffffffffffffffffffffffffffffffff1673ffffffffffffffffffffffffffffffffffffffff168152602001838103835287818151815260200191508051906020019080838360005b838110156109cd5780820151818401526020810190506109b2565b50505050905090810190601f1680156109fa5780820380516001836020036101000a031916815260200191505b50838103825286818151815260200191508051906020019080838360005b83811015610a33578082015181840152602081019050610a18565b50505050905090810190601f168015610a605780820380516001836020036101000a031916815260200191505b5097505050505050505060405180910390a1505050565b60015481565b6000825111610af4576040517f08c379a000000000000000000000000000000000000000000000000000000000815260040180806020018281038252601b8152602001807f5941592120546865726520697320616e20696d6167652068617368000000000081525060200191505060405180910390fd5b6000815111610b6b576040517f08c379a000000000000000000000000000000000000000000000000000000000815260040180806020018281038252601c8152602001807f594159212054686572652069732061206465736372697074696f6e2e0000000081525060200191505060405180910390fd5b600073ffffffffffffffffffffffffffffffffffffffff163373ffffffffffffffffffffffffffffffffffffffff161415610ba557600080fd5b6001600081548092919060010191905055506040518060a001604052806001548152602001838152602001828152602001600081526020013373ffffffffffffffffffffffffffffffffffffffff16815250600260006001548152602001908152602001600020600082015181600001556020820151816001019080519060200190610c32929190610e3d565b506040820151816002019080519060200190610c4f929190610e3d565b506060820151816003015560808201518160040160006101000a81548173ffffffffffffffffffffffffffffffffffffffff021916908373ffffffffffffffffffffffffffffffffffffffff1602179055509050507fc1d8dfa99b3f84f95d3f0bc4a768addeb97b83b20aef7f9cb6729e126bafd2f960015483836000336040518086815260200180602001806020018581526020018473ffffffffffffffffffffffffffffffffffffffff1673ffffffffffffffffffffffffffffffffffffffff168152602001838103835287818151815260200191508051906020019080838360005b83811015610d4f578082015181840152602081019050610d34565b50505050905090810190601f168015610d7c5780820380516001836020036101000a031916815260200191505b50838103825286818151815260200191508051906020019080838360005b83811015610db5578082015181840152602081019050610d9a565b50505050905090810190601f168015610de25780820380516001836020036101000a031916815260200191505b5097505050505050505060405180910390a15050565b6040518060a0016040528060008152602001606081526020016060815260200160008152602001600073ffffffffffffffffffffffffffffffffffffffff1681525090565b828054600181600116156101000203166002900490600052602060002090601f016020900481019282601f10610e7e57805160ff1916838001178555610eac565b82800160010185558215610eac579182015b82811115610eab578251825591602001919060010190610e90565b5b509050610eb99190610ebd565b5090565b610edf91905b80821115610edb576000816000905550600101610ec3565b5090565b9056fea265627a7a72315820c8ae0491242700dc2b1f4d971b8ae0b04848b7241e0ce0f040241113b007d02b64736f6c63430005100032",
  "source": "pragma solidity ^0.5.0;\n\ncontract Decentragram {\n  string public name = \"Decentragram\";\n\n  // stoare images\n  uint public imageCount = 0;\n  mapping(uint => Image) public images;\n\n  struct Image {\n    uint256 id;\n    string hash;\n    string description;\n    uint256 tipAmount;\n    address payable author;\n  }\n  // syntax is same as an index\n  event ImageCreated(\n    uint256 id,\n    string hash,\n    string description,\n    uint256 tipAmount, \n    address payable author\n  );\n\n  event TippedImage(\n    uint id,\n    string hash,\n    string description, \n    uint tipAmount, \n    address payable author\n  );\n  \n  // create images\n  function uploadImage(string memory _imgHash, string memory _description) public {\n    // image hash exists\n    require(bytes(_imgHash).length > 0, 'YAY! There is an image hash');\n    // must have a description\n    require(bytes(_description).length > 0, 'YAY! There is a description.');\n    // must be a valid user uploading\n    require(msg.sender != address(0x0));\n    // Incriment image id\n    imageCount ++;\n    // add image contract\n    images [imageCount] = Image(  \n      imageCount,\n      _imgHash,\n      _description,\n      0,\n      msg.sender\n    );\n    // envoke the event\n    emit ImageCreated(\n      imageCount, \n      _imgHash, \n      _description, \n      0, \n      msg.sender\n      );\n\n  }\n  // tip images\n  function tipImageOwner(uint _id) public payable {\n    require(_id > 0 && _id <= imageCount);\n    // grab image\n    Image memory _image = images[_id];\n    // get image author\n    address payable _author = _image.author;\n    // pay the auther with ether\n    address(_author).transfer(msg.value);\n    // increment the amount of ether\n    _image.tipAmount = _image.tipAmount + msg.value;\n    // update the image\n    images[_id] = _image;\n    // trigger event\n    emit TippedImage(_id, _image.hash, _image.description, _image.tipAmount, _author);\n  }\n}",
  "sourcePath": "/Users/paxpresley/Documents/backups/Blockchain-Projects/2_Decentragram/decentragram/src/contracts/Decentragram.sol",
  "compiler": {
    "name": "solc",
    "version": "0.5.16+commit.9c3226ce.Emscripten.clang"
  },
  "schemaVersion": "3.2.3",
  "updatedAt": "2021-08-24T22:32:53.076Z",
  "networkType": "ethereum",
  "devdoc": {
    "methods": {}
  },
  "userdoc": {
    "methods": {}
  }
}